{
  "contractName": "InheritanceSharing",
  "abi": [
    {
      "inputs": [],
      "stateMutability": "nonpayable",
      "type": "constructor"
    },
    {
      "anonymous": false,
      "inputs": [
        {
          "indexed": false,
          "internalType": "address",
          "name": "_testatorAddress",
          "type": "address"
        },
        {
          "indexed": true,
          "internalType": "address",
          "name": "_heirAddress",
          "type": "address"
        },
        {
          "indexed": false,
          "internalType": "uint256",
          "name": "_proofTime",
          "type": "uint256"
        }
      ],
      "name": "ProofDeath",
      "type": "event"
    },
    {
      "anonymous": false,
      "inputs": [
        {
          "indexed": false,
          "internalType": "address",
          "name": "_testatorAddress",
          "type": "address"
        },
        {
          "indexed": false,
          "internalType": "uint256",
          "name": "_totalAmount",
          "type": "uint256"
        }
      ],
      "name": "PublishTestament",
      "type": "event"
    },
    {
      "anonymous": false,
      "inputs": [
        {
          "indexed": false,
          "internalType": "address",
          "name": "_testatorAddress",
          "type": "address"
        },
        {
          "indexed": true,
          "internalType": "address",
          "name": "_heirAddress",
          "type": "address"
        },
        {
          "indexed": false,
          "internalType": "bool",
          "name": "_isReceipted",
          "type": "bool"
        }
      ],
      "name": "ReceiptedInheritance",
      "type": "event"
    },
    {
      "inputs": [
        {
          "internalType": "uint256",
          "name": "",
          "type": "uint256"
        }
      ],
      "name": "allTestators",
      "outputs": [
        {
          "internalType": "address",
          "name": "",
          "type": "address"
        }
      ],
      "stateMutability": "view",
      "type": "function"
    },
    {
      "inputs": [
        {
          "internalType": "address",
          "name": "",
          "type": "address"
        }
      ],
      "name": "counter",
      "outputs": [
        {
          "internalType": "uint256",
          "name": "",
          "type": "uint256"
        }
      ],
      "stateMutability": "view",
      "type": "function"
    },
    {
      "inputs": [
        {
          "internalType": "address",
          "name": "",
          "type": "address"
        },
        {
          "internalType": "address",
          "name": "",
          "type": "address"
        }
      ],
      "name": "isReceipted",
      "outputs": [
        {
          "internalType": "bool",
          "name": "",
          "type": "bool"
        }
      ],
      "stateMutability": "view",
      "type": "function"
    },
    {
      "inputs": [
        {
          "internalType": "address",
          "name": "",
          "type": "address"
        },
        {
          "internalType": "address",
          "name": "",
          "type": "address"
        }
      ],
      "name": "proof",
      "outputs": [
        {
          "internalType": "bool",
          "name": "",
          "type": "bool"
        }
      ],
      "stateMutability": "view",
      "type": "function"
    },
    {
      "inputs": [
        {
          "internalType": "address",
          "name": "",
          "type": "address"
        }
      ],
      "name": "testators",
      "outputs": [
        {
          "internalType": "address",
          "name": "inheritanceToken",
          "type": "address"
        },
        {
          "internalType": "uint256",
          "name": "numberOfHeirs",
          "type": "uint256"
        },
        {
          "internalType": "uint256",
          "name": "totalAmount",
          "type": "uint256"
        },
        {
          "internalType": "uint256",
          "name": "time",
          "type": "uint256"
        },
        {
          "internalType": "uint256",
          "name": "inheritanceBeginTime",
          "type": "uint256"
        },
        {
          "internalType": "bool",
          "name": "isPublished",
          "type": "bool"
        },
        {
          "internalType": "bool",
          "name": "isDied",
          "type": "bool"
        }
      ],
      "stateMutability": "view",
      "type": "function"
    },
    {
      "inputs": [
        {
          "internalType": "address",
          "name": "_inheritanceToken",
          "type": "address"
        },
        {
          "internalType": "address[]",
          "name": "_heirs",
          "type": "address[]"
        },
        {
          "internalType": "uint256",
          "name": "_time",
          "type": "uint256"
        },
        {
          "internalType": "uint256",
          "name": "_totalAmount",
          "type": "uint256"
        }
      ],
      "name": "publishTestament",
      "outputs": [],
      "stateMutability": "nonpayable",
      "type": "function"
    },
    {
      "inputs": [
        {
          "internalType": "address",
          "name": "_testatorAddress",
          "type": "address"
        },
        {
          "internalType": "address",
          "name": "_heirAddress",
          "type": "address"
        }
      ],
      "name": "proofToDeath",
      "outputs": [],
      "stateMutability": "nonpayable",
      "type": "function"
    },
    {
      "inputs": [
        {
          "internalType": "address",
          "name": "_testatorAddress",
          "type": "address"
        },
        {
          "internalType": "address",
          "name": "_heirAddress",
          "type": "address"
        }
      ],
      "name": "receiptToTestament",
      "outputs": [],
      "stateMutability": "nonpayable",
      "type": "function"
    },
    {
      "inputs": [],
      "name": "viewTestators",
      "outputs": [
        {
          "internalType": "address[]",
          "name": "",
          "type": "address[]"
        }
      ],
      "stateMutability": "view",
      "type": "function"
    },
    {
      "inputs": [
        {
          "internalType": "address",
          "name": "_testatorAddress",
          "type": "address"
        }
      ],
      "name": "allHeirs",
      "outputs": [
        {
          "internalType": "address[]",
          "name": "",
          "type": "address[]"
        }
      ],
      "stateMutability": "view",
      "type": "function"
    },
    {
      "inputs": [
        {
          "internalType": "address",
          "name": "_testatorAddress",
          "type": "address"
        }
      ],
      "name": "died",
      "outputs": [
        {
          "internalType": "bool",
          "name": "",
          "type": "bool"
        }
      ],
      "stateMutability": "view",
      "type": "function"
    }
  ],
  "bytecode": "0x608060405234801561001057600080fd5b50610d0f806100206000396000f3fe608060405234801561001057600080fd5b50600436106100a95760003560e01c8063b45b91f211610071578063b45b91f214610159578063c12327b8146101f5578063c127e50314610223578063cb1c703614610236578063d505ae271461026a578063d77b86381461027d57600080fd5b80630f5f23b5146100ae5780637850ba32146100c35780637cb836a7146100d65780637e97e822146101195780639d862d351461012e575b600080fd5b6100c16100bc366004610ad3565b6102ab565b005b6100c16100d1366004610bb9565b61045a565b6101046100e4366004610bb9565b600260209081526000928352604080842090915290825290205460ff1681565b60405190151581526020015b60405180910390f35b61012161067b565b6040516101109190610bec565b61014161013c366004610c39565b6106dd565b6040516001600160a01b039091168152602001610110565b6101b2610167366004610c52565b6000602081905290815260409020805460028201546003830154600484015460058501546006909501546001600160a01b039094169492939192909160ff8082169161010090041687565b604080516001600160a01b03909816885260208801969096529486019390935260608501919091526080840152151560a0830152151560c082015260e001610110565b610215610203366004610c52565b60036020526000908152604090205481565b604051908152602001610110565b610121610231366004610c52565b610707565b610104610244366004610c52565b6001600160a01b0316600090815260208190526040902060060154610100900460ff1690565b6100c1610278366004610bb9565b61077e565b61010461028b366004610bb9565b600160209081526000928352604080842090915290825290205460ff1681565b336000908152602081905260409020600681015460ff16156103005760405162461bcd60e51b81526020600482015260096024820152681c1d589b1a5cda195960ba1b60448201526064015b60405180910390fd5b600681018054600160ff19909116811790915581546001600160a01b0319166001600160a01b038716178255845161033f918301906020870190610a27565b5060048181018490556001808301546002840155600383018481558254918201835560008390527f8a35acfbc15ff81a39ae7d344fd709f28e8600b4aa8c65c6b64bfe7fe36bd19b90910180546001600160a01b03191633908117909155835491546040516323b872dd60e01b81529384019190915230602484015260448301526001600160a01b03169081906323b872dd906064016020604051808303816000875af11580156103f4573d6000803e3d6000fd5b505050506040513d601f19601f820116820180604052508101906104189190610c6d565b5060408051338152602081018590527f62fe44065bc1a3935182523ff3907ce03d2084cb193bfd69be909c7a73b491e2910160405180910390a1505050505050565b806001600160a01b03811633146104a65760405162461bcd60e51b815260206004820152601060248201526f6e6f742068656972206164647265737360801b60448201526064016102f7565b6001600160a01b038316600090815260208190526040902060060154610100900460ff16156105005760405162461bcd60e51b81526004016102f790602080825260049082015263191a595960e21b604082015260600190565b6001600160a01b0380841660009081526001602090815260408083209386168352929052205460ff161561055f5760405162461bcd60e51b81526020600482015260066024820152651c1c9bdd995960d21b60448201526064016102f7565b6001600160a01b0380841660008181526001602081815260408084209588168452948152848320805460ff19168317905592825260039092529182208054919290916105ac908490610c96565b90915550506001600160a01b0383166000908152602081815260408083206002015460039092529091205403610631576001600160a01b038316600090815260208190526040902060068101805461ff00191661010017905560040154610614904290610a06565b6001600160a01b0384166000908152602081905260409020600501555b604080516001600160a01b0385811682524260208301528416917ffcec6e821e599cacfc8359fcb03b795054d0fa079555d70516268ddcdf3de78b910160405180910390a2505050565b606060048054806020026020016040519081016040528092919081815260200182805480156106d357602002820191906000526020600020905b81546001600160a01b031681526001909101906020018083116106b5575b5050505050905090565b600481815481106106ed57600080fd5b6000918252602090912001546001600160a01b0316905081565b6001600160a01b0381166000908152602081815260409182902060010180548351818402810184019094528084526060939283018282801561077257602002820191906000526020600020905b81546001600160a01b03168152600190910190602001808311610754575b50505050509050919050565b806001600160a01b03811633146107ca5760405162461bcd60e51b815260206004820152601060248201526f6e6f742068656972206164647265737360801b60448201526064016102f7565b6001600160a01b038316600090815260208190526040902060060154610100900460ff166108285760405162461bcd60e51b815260206004820152600b60248201526a646964206e6f742064696560a81b60448201526064016102f7565b6001600160a01b03831660009081526020819052604090206005015442101561088a5760405162461bcd60e51b81526020600482015260146024820152736e6f7420696e6865726974616e63652074696d6560601b60448201526064016102f7565b6001600160a01b0380841660009081526002602090815260408083209386168352929052205460ff16156108ec5760405162461bcd60e51b81526020600482015260096024820152681c9958d95a5c1d195960ba1b60448201526064016102f7565b6001600160a01b03808416600081815260026020818152604080842088871685528252808420805460ff191660011790559383528290529190208054918101546003909101549190921691829163a9059cbb91869161094a91610a1b565b6040516001600160e01b031960e085901b1681526001600160a01b03909216600483015260248201526044016020604051808303816000875af1158015610995573d6000803e3d6000fd5b505050506040513d601f19601f820116820180604052508101906109b99190610c6d565b50604080516001600160a01b038681168252600160208301528516917fcc173a66f7914814b73747995b1840a0cd2aa3a3bd5d75a7dcd00b0878db2ea8910160405180910390a250505050565b6000610a128284610c96565b90505b92915050565b6000610a128284610cb7565b828054828255906000526020600020908101928215610a7c579160200282015b82811115610a7c57825182546001600160a01b0319166001600160a01b03909116178255602090920191600190910190610a47565b50610a88929150610a8c565b5090565b5b80821115610a885760008155600101610a8d565b80356001600160a01b0381168114610ab857600080fd5b919050565b634e487b7160e01b600052604160045260246000fd5b60008060008060808587031215610ae957600080fd5b610af285610aa1565b935060208086013567ffffffffffffffff80821115610b1057600080fd5b818801915088601f830112610b2457600080fd5b813581811115610b3657610b36610abd565b8060051b604051601f19603f83011681018181108582111715610b5b57610b5b610abd565b60405291825284820192508381018501918b831115610b7957600080fd5b938501935b82851015610b9e57610b8f85610aa1565b84529385019392850192610b7e565b989b989a505050506040870135966060013595945050505050565b60008060408385031215610bcc57600080fd5b610bd583610aa1565b9150610be360208401610aa1565b90509250929050565b6020808252825182820181905260009190848201906040850190845b81811015610c2d5783516001600160a01b031683529284019291840191600101610c08565b50909695505050505050565b600060208284031215610c4b57600080fd5b5035919050565b600060208284031215610c6457600080fd5b610a1282610aa1565b600060208284031215610c7f57600080fd5b81518015158114610c8f57600080fd5b9392505050565b80820180821115610a1557634e487b7160e01b600052601160045260246000fd5b600082610cd457634e487b7160e01b600052601260045260246000fd5b50049056fea2646970667358221220201fc7095a22d70cf3958527f171ee65cec06c1c3f686f8b2e427d04eedcdb2764736f6c63430008110033",
  "immutableReferences": {},
  "source": "// SPDX-License-Identifier: MIT\r\npragma solidity ^0.8.7;\r\n\r\nimport { ERC20 } from \"@openzeppelin/contracts/token/ERC20/ERC20.sol\";\r\nimport { SafeMath } from \"@openzeppelin/contracts/utils/math/SafeMath.sol\";\r\n\r\ncontract InheritanceSharing {\r\n    // For use mathematical operations\r\n    using SafeMath for uint;\r\n\r\n    //Events\r\n    event PublishTestament(address _testatorAddress, uint _totalAmount);\r\n    event ProofDeath(address _testatorAddress, address indexed _heirAddress, uint _proofTime);\r\n    event ReceiptedInheritance(address _testatorAddress, address indexed _heirAddress, bool _isReceipted);\r\n \r\n    //Information of a testator\r\n    struct Testator {\r\n        address inheritanceToken;\r\n        address[] heirs;\r\n        uint numberOfHeirs;\r\n        uint totalAmount;\r\n        uint time;\r\n        uint inheritanceBeginTime;\r\n        bool isPublished;\r\n        bool isDied;\r\n    }\r\n\r\n    //Testament to an address\r\n    mapping(address => Testator) public testators;\r\n    //Proof of heir\r\n    mapping(address => mapping(address => bool)) public proof;\r\n    //Is inheritance receipted\r\n    mapping(address => mapping(address => bool)) public isReceipted;\r\n    //Heir proof count\r\n    mapping(address => uint) public counter;\r\n    \r\n    //Address of the testators\r\n    address[] public allTestators;\r\n\r\n    //There is no data to write to state while deploying\r\n    constructor() {}\r\n\r\n    //Control to heir for inheritance\r\n    modifier checkHeirAddress(address _heirAddress) {\r\n        require(_heirAddress == msg.sender, \"not heir address\");\r\n        _;\r\n    }\r\n\r\n    //Address that does not testament a publishs testament\r\n    function publishTestament(address _inheritanceToken, address[] memory _heirs, uint _time, uint _totalAmount) external {\r\n        Testator storage testator = testators[msg.sender];\r\n        require(!testators[msg.sender].isPublished, \"published\");\r\n        testator.isPublished = true;\r\n        testator.inheritanceToken = _inheritanceToken;\r\n        testator.heirs = _heirs;  \r\n        testator.time = _time;\r\n        testator.numberOfHeirs = testator.heirs.length;\r\n        testator.totalAmount = _totalAmount;\r\n        allTestators.push(msg.sender);\r\n        ERC20 inheritanceToken = ERC20(testator.inheritanceToken);\r\n        inheritanceToken.transferFrom(msg.sender, address(this), testator.totalAmount);\r\n\r\n        emit PublishTestament(msg.sender, _totalAmount);\r\n    }\r\n\r\n    //Each heir proof the death of the testator\r\n    function proofToDeath(address _testatorAddress, address _heirAddress) external checkHeirAddress(_heirAddress) {\r\n        require(!testators[_testatorAddress].isDied, \"died\");\r\n        require(!proof[_testatorAddress][_heirAddress], \"proved\");\r\n        proof[_testatorAddress][_heirAddress] = true;\r\n        counter[_testatorAddress] += 1;\r\n        if(counter[_testatorAddress] == testators[_testatorAddress].numberOfHeirs) {\r\n            testators[_testatorAddress].isDied = true;\r\n            testators[_testatorAddress].inheritanceBeginTime = (block.timestamp).add(testators[_testatorAddress].time);\r\n        }\r\n\r\n        emit ProofDeath(_testatorAddress, _heirAddress, block.timestamp);\r\n    }\r\n\r\n    //Heir, receipts his inheritance\r\n    function receiptToTestament(address _testatorAddress, address _heirAddress) external checkHeirAddress(_heirAddress) {\r\n        require(testators[_testatorAddress].isDied, \"did not die\");\r\n        require(block.timestamp >= testators[_testatorAddress].inheritanceBeginTime, \"not inheritance time\");\r\n        require(!isReceipted[_testatorAddress][_heirAddress], \"receipted\");\r\n        isReceipted[_testatorAddress][_heirAddress] = true;\r\n        ERC20 inheritanceToken = ERC20(testators[_testatorAddress].inheritanceToken);\r\n        inheritanceToken.transfer(_heirAddress, (testators[_testatorAddress].totalAmount.div(testators[_testatorAddress].numberOfHeirs)));\r\n    \r\n        emit ReceiptedInheritance(_testatorAddress, _heirAddress, true);\r\n    }\r\n\r\n    //Read address of all testators\r\n    function viewTestators() external view returns (address[] memory) {\r\n        return allTestators; \r\n    }\r\n\r\n    //Read heirs address of all testators\r\n    function allHeirs(address _testatorAddress) external view returns (address[] memory) {\r\n        return testators[_testatorAddress].heirs; \r\n    }\r\n\r\n    //Read the death information\r\n    function died(address _testatorAddress) external view returns(bool) {\r\n        return testators[_testatorAddress].isDied;\r\n    }\r\n}",
  "sourcePath": "C:\\Users\\Asus\\Desktop\\Web3Practicum\\FinalCase\\contracts\\InheritanceSharing.sol",
  "compiler": {
    "name": "solc",
    "version": "0.8.17+commit.8df45f5f.Emscripten.clang"
  },
  "schemaVersion": "3.4.3",
  "updatedAt": "2022-10-11T12:15:20.395Z",
  "devdoc": {
    "kind": "dev",
    "methods": {},
    "version": 1
  },
  "userdoc": {
    "kind": "user",
    "methods": {},
    "version": 1
  }
}