{
  "contractName": "InheritanceSharing",
  "abi": [
    {
      "inputs": [],
      "stateMutability": "nonpayable",
      "type": "constructor"
    },
    {
      "inputs": [
        {
          "internalType": "uint256",
          "name": "",
          "type": "uint256"
        }
      ],
      "name": "allTestators",
      "outputs": [
        {
          "internalType": "address",
          "name": "",
          "type": "address"
        }
      ],
      "stateMutability": "view",
      "type": "function",
      "constant": true
    },
    {
      "inputs": [
        {
          "internalType": "address",
          "name": "",
          "type": "address"
        }
      ],
      "name": "counter",
      "outputs": [
        {
          "internalType": "uint256",
          "name": "",
          "type": "uint256"
        }
      ],
      "stateMutability": "view",
      "type": "function",
      "constant": true
    },
    {
      "inputs": [
        {
          "internalType": "address",
          "name": "",
          "type": "address"
        },
        {
          "internalType": "address",
          "name": "",
          "type": "address"
        }
      ],
      "name": "isReceipted",
      "outputs": [
        {
          "internalType": "bool",
          "name": "",
          "type": "bool"
        }
      ],
      "stateMutability": "view",
      "type": "function",
      "constant": true
    },
    {
      "inputs": [
        {
          "internalType": "address",
          "name": "",
          "type": "address"
        },
        {
          "internalType": "address",
          "name": "",
          "type": "address"
        }
      ],
      "name": "proof",
      "outputs": [
        {
          "internalType": "bool",
          "name": "",
          "type": "bool"
        }
      ],
      "stateMutability": "view",
      "type": "function",
      "constant": true
    },
    {
      "inputs": [
        {
          "internalType": "address",
          "name": "",
          "type": "address"
        }
      ],
      "name": "testators",
      "outputs": [
        {
          "internalType": "address",
          "name": "inheritanceToken",
          "type": "address"
        },
        {
          "internalType": "uint256",
          "name": "numberOfHeirs",
          "type": "uint256"
        },
        {
          "internalType": "uint256",
          "name": "totalAmount",
          "type": "uint256"
        },
        {
          "internalType": "uint256",
          "name": "time",
          "type": "uint256"
        },
        {
          "internalType": "uint256",
          "name": "inheritanceBeginTime",
          "type": "uint256"
        },
        {
          "internalType": "bool",
          "name": "isPublished",
          "type": "bool"
        },
        {
          "internalType": "bool",
          "name": "isDied",
          "type": "bool"
        }
      ],
      "stateMutability": "view",
      "type": "function",
      "constant": true
    },
    {
      "inputs": [
        {
          "internalType": "address",
          "name": "_inheritanceToken",
          "type": "address"
        },
        {
          "internalType": "address[]",
          "name": "_heirs",
          "type": "address[]"
        },
        {
          "internalType": "uint256",
          "name": "_time",
          "type": "uint256"
        },
        {
          "internalType": "uint256",
          "name": "_totalAmount",
          "type": "uint256"
        }
      ],
      "name": "publishTestament",
      "outputs": [],
      "stateMutability": "nonpayable",
      "type": "function"
    },
    {
      "inputs": [
        {
          "internalType": "address",
          "name": "_testatorAddress",
          "type": "address"
        },
        {
          "internalType": "address",
          "name": "_heirAddress",
          "type": "address"
        }
      ],
      "name": "proofToDeath",
      "outputs": [],
      "stateMutability": "nonpayable",
      "type": "function"
    },
    {
      "inputs": [
        {
          "internalType": "address",
          "name": "_testatorAddress",
          "type": "address"
        },
        {
          "internalType": "address",
          "name": "_heirAddress",
          "type": "address"
        }
      ],
      "name": "receiptToTestament",
      "outputs": [],
      "stateMutability": "nonpayable",
      "type": "function"
    },
    {
      "inputs": [],
      "name": "viewTestators",
      "outputs": [
        {
          "internalType": "address[]",
          "name": "",
          "type": "address[]"
        }
      ],
      "stateMutability": "view",
      "type": "function",
      "constant": true
    },
    {
      "inputs": [
        {
          "internalType": "address",
          "name": "_testatorAddress",
          "type": "address"
        }
      ],
      "name": "allHeirs",
      "outputs": [
        {
          "internalType": "address[]",
          "name": "",
          "type": "address[]"
        }
      ],
      "stateMutability": "view",
      "type": "function",
      "constant": true
    },
    {
      "inputs": [
        {
          "internalType": "address",
          "name": "_testatorAddress",
          "type": "address"
        }
      ],
      "name": "died",
      "outputs": [
        {
          "internalType": "bool",
          "name": "",
          "type": "bool"
        }
      ],
      "stateMutability": "view",
      "type": "function",
      "constant": true
    }
  ],
  "bytecode": "0x608060405234801561001057600080fd5b50610c47806100206000396000f3fe608060405234801561001057600080fd5b50600436106100a95760003560e01c8063b45b91f211610071578063b45b91f214610159578063c12327b8146101f5578063c127e50314610223578063cb1c703614610236578063d505ae271461026a578063d77b86381461027d57600080fd5b80630f5f23b5146100ae5780637850ba32146100c35780637cb836a7146100d65780637e97e822146101195780639d862d351461012e575b600080fd5b6100c16100bc366004610a0b565b6102ab565b005b6100c16100d1366004610af1565b610421565b6101046100e4366004610af1565b600260209081526000928352604080842090915290825290205460ff1681565b60405190151581526020015b60405180910390f35b6101216105fb565b6040516101109190610b24565b61014161013c366004610b71565b61065d565b6040516001600160a01b039091168152602001610110565b6101b2610167366004610b8a565b6000602081905290815260409020805460028201546003830154600484015460058501546006909501546001600160a01b039094169492939192909160ff8082169161010090041687565b604080516001600160a01b03909816885260208801969096529486019390935260608501919091526080840152151560a0830152151560c082015260e001610110565b610215610203366004610b8a565b60036020526000908152604090205481565b604051908152602001610110565b610121610231366004610b8a565b610687565b610104610244366004610b8a565b6001600160a01b0316600090815260208190526040902060060154610100900460ff1690565b6100c1610278366004610af1565b6106fe565b61010461028b366004610af1565b600160209081526000928352604080842090915290825290205460ff1681565b336000908152602081905260409020600681015460ff16156103005760405162461bcd60e51b81526020600482015260096024820152681c1d589b1a5cda195960ba1b60448201526064015b60405180910390fd5b600681018054600160ff19909116811790915581546001600160a01b0319166001600160a01b038716178255845161033f91830190602087019061095f565b5060048181018490556001808301546002840155600383018481558254918201835560008390527f8a35acfbc15ff81a39ae7d344fd709f28e8600b4aa8c65c6b64bfe7fe36bd19b90910180546001600160a01b03191633908117909155835491546040516323b872dd60e01b81529384019190915230602484015260448301526001600160a01b03169081906323b872dd906064016020604051808303816000875af11580156103f4573d6000803e3d6000fd5b505050506040513d601f19601f820116820180604052508101906104189190610ba5565b50505050505050565b6001600160a01b038216600090815260208190526040902060060154610100900460ff161561047b5760405162461bcd60e51b81526004016102f790602080825260049082015263191a595960e21b604082015260600190565b6001600160a01b03811633146104c65760405162461bcd60e51b815260206004820152601060248201526f6e6f742068656972206164647265737360801b60448201526064016102f7565b6001600160a01b0380831660009081526001602090815260408083209385168352929052205460ff16156105255760405162461bcd60e51b81526020600482015260066024820152651c1c9bdd995960d21b60448201526064016102f7565b6001600160a01b0380831660008181526001602081815260408084209587168452948152848320805460ff1916831790559282526003909252918220805491929091610572908490610bce565b90915550506001600160a01b03821660009081526020818152604080832060020154600390925290912054036105f7576001600160a01b038216600090815260208190526040902060068101805461ff001916610100179055600401546105da90429061093e565b6001600160a01b0383166000908152602081905260409020600501555b5050565b6060600480548060200260200160405190810160405280929190818152602001828054801561065357602002820191906000526020600020905b81546001600160a01b03168152600190910190602001808311610635575b5050505050905090565b6004818154811061066d57600080fd5b6000918252602090912001546001600160a01b0316905081565b6001600160a01b038116600090815260208181526040918290206001018054835181840281018401909452808452606093928301828280156106f257602002820191906000526020600020905b81546001600160a01b031681526001909101906020018083116106d4575b50505050509050919050565b6001600160a01b038216600090815260208190526040902060060154610100900460ff1661075c5760405162461bcd60e51b815260206004820152600b60248201526a646964206e6f742064696560a81b60448201526064016102f7565b6001600160a01b0382166000908152602081905260409020600501544210156107be5760405162461bcd60e51b81526020600482015260146024820152736e6f7420696e6865726974616e63652074696d6560601b60448201526064016102f7565b6001600160a01b03811633146108095760405162461bcd60e51b815260206004820152601060248201526f6e6f742068656972206164647265737360801b60448201526064016102f7565b6001600160a01b0380831660009081526002602090815260408083209385168352929052205460ff161561086b5760405162461bcd60e51b81526020600482015260096024820152681c9958d95a5c1d195960ba1b60448201526064016102f7565b6001600160a01b03808316600081815260026020818152604080842087871685528252808420805460ff191660011790559383528290529190208054918101546003909101549190921691829163a9059cbb9185916108c991610953565b6040516001600160e01b031960e085901b1681526001600160a01b03909216600483015260248201526044016020604051808303816000875af1158015610914573d6000803e3d6000fd5b505050506040513d601f19601f820116820180604052508101906109389190610ba5565b50505050565b600061094a8284610bce565b90505b92915050565b600061094a8284610bef565b8280548282559060005260206000209081019282156109b4579160200282015b828111156109b457825182546001600160a01b0319166001600160a01b0390911617825560209092019160019091019061097f565b506109c09291506109c4565b5090565b5b808211156109c057600081556001016109c5565b80356001600160a01b03811681146109f057600080fd5b919050565b634e487b7160e01b600052604160045260246000fd5b60008060008060808587031215610a2157600080fd5b610a2a856109d9565b935060208086013567ffffffffffffffff80821115610a4857600080fd5b818801915088601f830112610a5c57600080fd5b813581811115610a6e57610a6e6109f5565b8060051b604051601f19603f83011681018181108582111715610a9357610a936109f5565b60405291825284820192508381018501918b831115610ab157600080fd5b938501935b82851015610ad657610ac7856109d9565b84529385019392850192610ab6565b989b989a505050506040870135966060013595945050505050565b60008060408385031215610b0457600080fd5b610b0d836109d9565b9150610b1b602084016109d9565b90509250929050565b6020808252825182820181905260009190848201906040850190845b81811015610b655783516001600160a01b031683529284019291840191600101610b40565b50909695505050505050565b600060208284031215610b8357600080fd5b5035919050565b600060208284031215610b9c57600080fd5b61094a826109d9565b600060208284031215610bb757600080fd5b81518015158114610bc757600080fd5b9392505050565b8082018082111561094d57634e487b7160e01b600052601160045260246000fd5b600082610c0c57634e487b7160e01b600052601260045260246000fd5b50049056fea264697066735822122006ff531c733a0672fddfb64b65ca8d18b2dd13bf9d428525d21ed132749e9b4964736f6c63430008110033",
  "immutableReferences": {},
  "source": "// SPDX-License-Identifier: MIT\r\npragma solidity ^0.8.7;\r\n\r\nimport { ERC20 } from \"@openzeppelin/contracts/token/ERC20/ERC20.sol\";\r\nimport { SafeMath } from \"@openzeppelin/contracts/utils/math/SafeMath.sol\";\r\n\r\ncontract InheritanceSharing {\r\n    // For use mathematical operations\r\n    using SafeMath for uint;\r\n \r\n    //Information of a testator\r\n    struct Testator {\r\n        address inheritanceToken;\r\n        address[] heirs;\r\n        uint numberOfHeirs;\r\n        uint totalAmount;\r\n        uint time;\r\n        uint inheritanceBeginTime;\r\n        bool isPublished;\r\n        bool isDied;\r\n    }\r\n\r\n    //Testament to an address\r\n    mapping(address => Testator) public testators;\r\n    //Proof of heir\r\n    mapping(address => mapping(address => bool)) public proof;\r\n    //Is inheritance receipted\r\n    mapping(address => mapping(address => bool)) public isReceipted;\r\n    //Heir proof count\r\n    mapping(address => uint) public counter;\r\n    \r\n    //Address of the testators\r\n    address[] public allTestators;\r\n\r\n    //There is no data to write to state while deploying\r\n    constructor() {}\r\n\r\n    //Address that does not testament a publishs testament\r\n    function publishTestament(address _inheritanceToken, address[] memory _heirs, uint _time, uint _totalAmount) external {\r\n        Testator storage testator = testators[msg.sender];\r\n        require(!testators[msg.sender].isPublished, \"published\");\r\n        testator.isPublished = true;\r\n        testator.inheritanceToken = _inheritanceToken;\r\n        testator.heirs = _heirs;  \r\n        testator.time = _time;\r\n        testator.numberOfHeirs = testator.heirs.length;\r\n        testator.totalAmount = _totalAmount;\r\n        allTestators.push(msg.sender);\r\n        ERC20 inheritanceToken = ERC20(testator.inheritanceToken);\r\n        inheritanceToken.transferFrom(msg.sender, address(this), testator.totalAmount);\r\n    }\r\n\r\n    //Each heir proof the death of the testator\r\n    function proofToDeath(address _testatorAddress, address _heirAddress) external {\r\n        require(!testators[_testatorAddress].isDied, \"died\");\r\n        require(_heirAddress == msg.sender, \"not heir address\");\r\n        require(!proof[_testatorAddress][_heirAddress], \"proved\");\r\n        proof[_testatorAddress][_heirAddress] = true;\r\n        counter[_testatorAddress] += 1;\r\n        if(counter[_testatorAddress] == testators[_testatorAddress].numberOfHeirs) {\r\n            testators[_testatorAddress].isDied = true;\r\n            testators[_testatorAddress].inheritanceBeginTime = (block.timestamp).add(testators[_testatorAddress].time);\r\n        }\r\n    }\r\n\r\n    //Heir, receipts his inheritance\r\n    function receiptToTestament(address _testatorAddress, address _heirAddress) external {\r\n        require(testators[_testatorAddress].isDied, \"did not die\");\r\n        require(block.timestamp >= testators[_testatorAddress].inheritanceBeginTime, \"not inheritance time\");\r\n        require(_heirAddress == msg.sender, \"not heir address\");\r\n        require(!isReceipted[_testatorAddress][_heirAddress], \"receipted\");\r\n        isReceipted[_testatorAddress][_heirAddress] = true;\r\n        ERC20 inheritanceToken = ERC20(testators[_testatorAddress].inheritanceToken);\r\n        inheritanceToken.transfer(_heirAddress, (testators[_testatorAddress].totalAmount.div(testators[_testatorAddress].numberOfHeirs)));\r\n    }\r\n\r\n    //Read address of all testators\r\n    function viewTestators() external view returns (address[] memory) {\r\n        return allTestators; \r\n    }\r\n\r\n    //Read heirs address of all testators\r\n    function allHeirs(address _testatorAddress) external view returns (address[] memory) {\r\n        return testators[_testatorAddress].heirs; \r\n    }\r\n\r\n    //Read the death information\r\n    function died(address _testatorAddress) external view returns(bool) {\r\n        return testators[_testatorAddress].isDied;\r\n    }\r\n}",
  "sourcePath": "C:\\Users\\Asus\\Desktop\\Web3Practicum\\FinalCase\\contracts\\InheritanceSharing.sol",
  "compiler": {
    "name": "solc",
    "version": "0.8.17+commit.8df45f5f.Emscripten.clang"
  },
  "schemaVersion": "3.4.3",
  "updatedAt": "2022-10-09T15:00:26.553Z",
  "networkType": "ethereum",
  "devdoc": {
    "kind": "dev",
    "methods": {},
    "version": 1
  },
  "userdoc": {
    "kind": "user",
    "methods": {},
    "version": 1
  }
}